{
  "contractName": "OpenEvents",
  "abi": [
    {
      "constant": true,
      "inputs": [
        {
          "name": "_interfaceId",
          "type": "bytes4"
        }
      ],
      "name": "supportsInterface",
      "outputs": [
        {
          "name": "",
          "type": "bool"
        }
      ],
      "payable": false,
      "stateMutability": "view",
      "type": "function"
    },
    {
      "constant": true,
      "inputs": [],
      "name": "name",
      "outputs": [
        {
          "name": "",
          "type": "string"
        }
      ],
      "payable": false,
      "stateMutability": "view",
      "type": "function"
    },
    {
      "constant": true,
      "inputs": [
        {
          "name": "_tokenId",
          "type": "uint256"
        }
      ],
      "name": "getApproved",
      "outputs": [
        {
          "name": "",
          "type": "address"
        }
      ],
      "payable": false,
      "stateMutability": "view",
      "type": "function"
    },
    {
      "constant": false,
      "inputs": [
        {
          "name": "_to",
          "type": "address"
        },
        {
          "name": "_tokenId",
          "type": "uint256"
        }
      ],
      "name": "approve",
      "outputs": [],
      "payable": false,
      "stateMutability": "nonpayable",
      "type": "function"
    },
    {
      "constant": true,
      "inputs": [],
      "name": "totalSupply",
      "outputs": [
        {
          "name": "",
          "type": "uint256"
        }
      ],
      "payable": false,
      "stateMutability": "view",
      "type": "function"
    },
    {
      "constant": true,
      "inputs": [],
      "name": "InterfaceId_ERC165",
      "outputs": [
        {
          "name": "",
          "type": "bytes4"
        }
      ],
      "payable": false,
      "stateMutability": "view",
      "type": "function"
    },
    {
      "constant": false,
      "inputs": [
        {
          "name": "_from",
          "type": "address"
        },
        {
          "name": "_to",
          "type": "address"
        },
        {
          "name": "_tokenId",
          "type": "uint256"
        }
      ],
      "name": "transferFrom",
      "outputs": [],
      "payable": false,
      "stateMutability": "nonpayable",
      "type": "function"
    },
    {
      "constant": true,
      "inputs": [
        {
          "name": "_owner",
          "type": "address"
        },
        {
          "name": "_index",
          "type": "uint256"
        }
      ],
      "name": "tokenOfOwnerByIndex",
      "outputs": [
        {
          "name": "",
          "type": "uint256"
        }
      ],
      "payable": false,
      "stateMutability": "view",
      "type": "function"
    },
    {
      "constant": true,
      "inputs": [
        {
          "name": "_owner",
          "type": "address"
        }
      ],
      "name": "ticketsOf",
      "outputs": [
        {
          "name": "",
          "type": "uint256[]"
        }
      ],
      "payable": false,
      "stateMutability": "view",
      "type": "function"
    },
    {
      "constant": false,
      "inputs": [],
      "name": "unpause",
      "outputs": [],
      "payable": false,
      "stateMutability": "nonpayable",
      "type": "function"
    },
    {
      "constant": false,
      "inputs": [
        {
          "name": "_from",
          "type": "address"
        },
        {
          "name": "_to",
          "type": "address"
        },
        {
          "name": "_tokenId",
          "type": "uint256"
        }
      ],
      "name": "safeTransferFrom",
      "outputs": [],
      "payable": false,
      "stateMutability": "nonpayable",
      "type": "function"
    },
    {
      "constant": true,
      "inputs": [
        {
          "name": "_tokenId",
          "type": "uint256"
        }
      ],
      "name": "exists",
      "outputs": [
        {
          "name": "",
          "type": "bool"
        }
      ],
      "payable": false,
      "stateMutability": "view",
      "type": "function"
    },
    {
      "constant": true,
      "inputs": [
        {
          "name": "_index",
          "type": "uint256"
        }
      ],
      "name": "tokenByIndex",
      "outputs": [
        {
          "name": "",
          "type": "uint256"
        }
      ],
      "payable": false,
      "stateMutability": "view",
      "type": "function"
    },
    {
      "constant": true,
      "inputs": [],
      "name": "paused",
      "outputs": [
        {
          "name": "",
          "type": "bool"
        }
      ],
      "payable": false,
      "stateMutability": "view",
      "type": "function"
    },
    {
      "constant": true,
      "inputs": [
        {
          "name": "_tokenId",
          "type": "uint256"
        }
      ],
      "name": "ownerOf",
      "outputs": [
        {
          "name": "",
          "type": "address"
        }
      ],
      "payable": false,
      "stateMutability": "view",
      "type": "function"
    },
    {
      "constant": true,
      "inputs": [
        {
          "name": "_owner",
          "type": "address"
        }
      ],
      "name": "balanceOf",
      "outputs": [
        {
          "name": "",
          "type": "uint256"
        }
      ],
      "payable": false,
      "stateMutability": "view",
      "type": "function"
    },
    {
      "constant": false,
      "inputs": [],
      "name": "renounceOwnership",
      "outputs": [],
      "payable": false,
      "stateMutability": "nonpayable",
      "type": "function"
    },
    {
      "constant": true,
      "inputs": [
        {
          "name": "_id",
          "type": "uint256"
        }
      ],
      "name": "getTicket",
      "outputs": [
        {
          "name": "",
          "type": "uint256"
        },
        {
          "name": "",
          "type": "uint256"
        }
      ],
      "payable": false,
      "stateMutability": "view",
      "type": "function"
    },
    {
      "constant": false,
      "inputs": [],
      "name": "destroy",
      "outputs": [],
      "payable": false,
      "stateMutability": "nonpayable",
      "type": "function"
    },
    {
      "constant": false,
      "inputs": [],
      "name": "pause",
      "outputs": [],
      "payable": false,
      "stateMutability": "nonpayable",
      "type": "function"
    },
    {
      "constant": true,
      "inputs": [],
      "name": "owner",
      "outputs": [
        {
          "name": "",
          "type": "address"
        }
      ],
      "payable": false,
      "stateMutability": "view",
      "type": "function"
    },
    {
      "constant": true,
      "inputs": [],
      "name": "symbol",
      "outputs": [
        {
          "name": "",
          "type": "string"
        }
      ],
      "payable": false,
      "stateMutability": "view",
      "type": "function"
    },
    {
      "constant": false,
      "inputs": [
        {
          "name": "_to",
          "type": "address"
        },
        {
          "name": "_approved",
          "type": "bool"
        }
      ],
      "name": "setApprovalForAll",
      "outputs": [],
      "payable": false,
      "stateMutability": "nonpayable",
      "type": "function"
    },
    {
      "constant": false,
      "inputs": [
        {
          "name": "_from",
          "type": "address"
        },
        {
          "name": "_to",
          "type": "address"
        },
        {
          "name": "_tokenId",
          "type": "uint256"
        },
        {
          "name": "_data",
          "type": "bytes"
        }
      ],
      "name": "safeTransferFrom",
      "outputs": [],
      "payable": false,
      "stateMutability": "nonpayable",
      "type": "function"
    },
    {
      "constant": true,
      "inputs": [
        {
          "name": "_tokenId",
          "type": "uint256"
        }
      ],
      "name": "tokenURI",
      "outputs": [
        {
          "name": "",
          "type": "string"
        }
      ],
      "payable": false,
      "stateMutability": "view",
      "type": "function"
    },
    {
      "constant": true,
      "inputs": [
        {
          "name": "_owner",
          "type": "address"
        },
        {
          "name": "_operator",
          "type": "address"
        }
      ],
      "name": "isApprovedForAll",
      "outputs": [
        {
          "name": "",
          "type": "bool"
        }
      ],
      "payable": false,
      "stateMutability": "view",
      "type": "function"
    },
    {
      "constant": false,
      "inputs": [
        {
          "name": "_newOwner",
          "type": "address"
        }
      ],
      "name": "transferOwnership",
      "outputs": [],
      "payable": false,
      "stateMutability": "nonpayable",
      "type": "function"
    },
    {
      "constant": false,
      "inputs": [
        {
          "name": "_recipient",
          "type": "address"
        }
      ],
      "name": "destroyAndSend",
      "outputs": [],
      "payable": false,
      "stateMutability": "nonpayable",
      "type": "function"
    },
    {
      "inputs": [
        {
          "name": "_token",
          "type": "address"
        }
      ],
      "payable": false,
      "stateMutability": "nonpayable",
      "type": "constructor"
    },
    {
      "anonymous": false,
      "inputs": [
        {
          "indexed": true,
          "name": "owner",
          "type": "address"
        },
        {
          "indexed": false,
          "name": "eventId",
          "type": "uint256"
        },
        {
          "indexed": false,
          "name": "name",
          "type": "string"
        },
        {
          "indexed": false,
          "name": "time",
          "type": "uint256"
        },
        {
          "indexed": false,
          "name": "price",
          "type": "uint256"
        },
        {
          "indexed": false,
          "name": "token",
          "type": "bool"
        },
        {
          "indexed": false,
          "name": "limited",
          "type": "bool"
        },
        {
          "indexed": false,
          "name": "seats",
          "type": "uint256"
        },
        {
          "indexed": false,
          "name": "sold",
          "type": "uint256"
        },
        {
          "indexed": false,
          "name": "ipfs",
          "type": "string"
        },
        {
          "indexed": false,
          "name": "category",
          "type": "string"
        }
      ],
      "name": "CreatedEvent",
      "type": "event"
    },
    {
      "anonymous": false,
      "inputs": [
        {
          "indexed": true,
          "name": "buyer",
          "type": "address"
        },
        {
          "indexed": true,
          "name": "eventId",
          "type": "uint256"
        },
        {
          "indexed": false,
          "name": "ticketId",
          "type": "uint256"
        }
      ],
      "name": "SoldTicket",
      "type": "event"
    },
    {
      "anonymous": false,
      "inputs": [],
      "name": "Pause",
      "type": "event"
    },
    {
      "anonymous": false,
      "inputs": [],
      "name": "Unpause",
      "type": "event"
    },
    {
      "anonymous": false,
      "inputs": [
        {
          "indexed": true,
          "name": "previousOwner",
          "type": "address"
        }
      ],
      "name": "OwnershipRenounced",
      "type": "event"
    },
    {
      "anonymous": false,
      "inputs": [
        {
          "indexed": true,
          "name": "previousOwner",
          "type": "address"
        },
        {
          "indexed": true,
          "name": "newOwner",
          "type": "address"
        }
      ],
      "name": "OwnershipTransferred",
      "type": "event"
    },
    {
      "anonymous": false,
      "inputs": [
        {
          "indexed": true,
          "name": "_from",
          "type": "address"
        },
        {
          "indexed": true,
          "name": "_to",
          "type": "address"
        },
        {
          "indexed": true,
          "name": "_tokenId",
          "type": "uint256"
        }
      ],
      "name": "Transfer",
      "type": "event"
    },
    {
      "anonymous": false,
      "inputs": [
        {
          "indexed": true,
          "name": "_owner",
          "type": "address"
        },
        {
          "indexed": true,
          "name": "_approved",
          "type": "address"
        },
        {
          "indexed": true,
          "name": "_tokenId",
          "type": "uint256"
        }
      ],
      "name": "Approval",
      "type": "event"
    },
    {
      "anonymous": false,
      "inputs": [
        {
          "indexed": true,
          "name": "_owner",
          "type": "address"
        },
        {
          "indexed": true,
          "name": "_operator",
          "type": "address"
        },
        {
          "indexed": false,
          "name": "_approved",
          "type": "bool"
        }
      ],
      "name": "ApprovalForAll",
      "type": "event"
    },
    {
      "constant": false,
      "inputs": [
        {
          "name": "_token",
          "type": "address"
        }
      ],
      "name": "chengeToken",
      "outputs": [],
      "payable": false,
      "stateMutability": "nonpayable",
      "type": "function"
    },
    {
      "constant": false,
      "inputs": [
        {
          "name": "_name",
          "type": "string"
        },
        {
          "name": "_time",
          "type": "uint256"
        },
        {
          "name": "_price",
          "type": "uint256"
        },
        {
          "name": "_token",
          "type": "bool"
        },
        {
          "name": "_limited",
          "type": "bool"
        },
        {
          "name": "_seats",
          "type": "uint256"
        },
        {
          "name": "_ipfs",
          "type": "string"
        },
        {
          "name": "_category",
          "type": "string"
        }
      ],
      "name": "createEvent",
      "outputs": [],
      "payable": false,
      "stateMutability": "nonpayable",
      "type": "function"
    },
    {
      "constant": true,
      "inputs": [
        {
          "name": "_owner",
          "type": "address"
        }
      ],
      "name": "eventsOf",
      "outputs": [
        {
          "name": "",
          "type": "uint256[]"
        }
      ],
      "payable": false,
      "stateMutability": "view",
      "type": "function"
    },
    {
      "constant": true,
      "inputs": [
        {
          "name": "_id",
          "type": "uint256"
        }
      ],
      "name": "getEvent",
      "outputs": [
        {
          "name": "name",
          "type": "string"
        },
        {
          "name": "time",
          "type": "uint256"
        },
        {
          "name": "price",
          "type": "uint256"
        },
        {
          "name": "token",
          "type": "bool"
        },
        {
          "name": "limited",
          "type": "bool"
        },
        {
          "name": "seats",
          "type": "uint256"
        },
        {
          "name": "sold",
          "type": "uint256"
        },
        {
          "name": "ipfs",
          "type": "string"
        },
        {
          "name": "category",
          "type": "string"
        },
        {
          "name": "owner",
          "type": "address"
        }
      ],
      "payable": false,
      "stateMutability": "view",
      "type": "function"
    },
    {
      "constant": true,
      "inputs": [],
      "name": "getEventsCount",
      "outputs": [
        {
          "name": "",
          "type": "uint256"
        }
      ],
      "payable": false,
      "stateMutability": "view",
      "type": "function"
    },
    {
      "constant": false,
      "inputs": [
        {
          "name": "_eventId",
          "type": "uint256"
        }
      ],
      "name": "buyTicket",
      "outputs": [],
      "payable": true,
      "stateMutability": "payable",
      "type": "function"
    }
  ],
  "bytecode": "0x60806040526000600d60146101000a81548160ff0219169083151502179055503480156200002c57600080fd5b5060405160208062003dfa833981018060405281019080805190602001909291905050506040805190810160405280600a81526020017f4f70656e5469636b6574000000000000000000000000000000000000000000008152506040805190810160405280600781526020017ff09f8e9fefb88f00000000000000000000000000000000000000000000000000815250620000f96301ffc9a77c010000000000000000000000000000000000000000000000000000000002620002aa640100000000026401000000009004565b620001366380ac58cd7c010000000000000000000000000000000000000000000000000000000002620002aa640100000000026401000000009004565b62000173634f558e797c010000000000000000000000000000000000000000000000000000000002620002aa640100000000026401000000009004565b81600590805190602001906200018b92919062000368565b508060069080519060200190620001a492919062000368565b50620001e263780e9d637c010000000000000000000000000000000000000000000000000000000002620002aa640100000000026401000000009004565b6200021f635b5e139f7c010000000000000000000000000000000000000000000000000000000002620002aa640100000000026401000000009004565b505033600d60006101000a81548173ffffffffffffffffffffffffffffffffffffffff021916908373ffffffffffffffffffffffffffffffffffffffff16021790555080600e60006101000a81548173ffffffffffffffffffffffffffffffffffffffff021916908373ffffffffffffffffffffffffffffffffffffffff1602179055505062000417565b63ffffffff7c010000000000000000000000000000000000000000000000000000000002817bffffffffffffffffffffffffffffffffffffffffffffffffffffffff191614151515620002fc57600080fd5b6001600080837bffffffffffffffffffffffffffffffffffffffffffffffffffffffff19167bffffffffffffffffffffffffffffffffffffffffffffffffffffffff1916815260200190815260200160002060006101000a81548160ff02191690831515021790555050565b828054600181600116156101000203166002900490600052602060002090601f016020900481019282601f10620003ab57805160ff1916838001178555620003dc565b82800160010185558215620003dc579182015b82811115620003db578251825591602001919060010190620003be565b5b509050620003eb9190620003ef565b5090565b6200041491905b8082111562000410576000816000905550600101620003f6565b5090565b90565b6139d380620004276000396000f3006080604052600436106101ac576000357c0100000000000000000000000000000000000000000000000000000000900463ffffffff16806301ffc9a7146101b157806306fdde0314610215578063081812fc146102a5578063095ea7b31461031257806318160ddd1461035f57806319fa8f501461038a57806323b872dd146103f35780632f745c591461046057806330366d5f146104c157806331657926146104ec5780633289ac2b146105845780633f4ba83a146105c757806342842e0e146105de5780634f558e791461064b5780634f6ccce7146106905780635c975abb146106d15780636352211e1461070057806367dd74ca1461076d57806368ed44e71461078d5780636d1884e01461082557806370a0823114610a08578063715018a614610a5f5780637dc379fa14610a7657806383197ef014610abe5780638456cb5914610ad55780638da5cb5b14610aec57806395d89b4114610b43578063a22cb46514610bd3578063b88d4fde14610c22578063c87b56dd14610cd5578063e985e9c514610d7b578063f2fde38b14610df6578063f5074f4114610e39578063fb1999c614610e7c575b600080fd5b3480156101bd57600080fd5b506101fb60048036038101908080357bffffffffffffffffffffffffffffffffffffffffffffffffffffffff19169060200190929190505050610fa7565b604051808215151515815260200191505060405180910390f35b34801561022157600080fd5b5061022a61100e565b6040518080602001828103825283818151815260200191508051906020019080838360005b8381101561026a57808201518184015260208101905061024f565b50505050905090810190601f1680156102975780820380516001836020036101000a031916815260200191505b509250505060405180910390f35b3480156102b157600080fd5b506102d0600480360381019080803590602001909291905050506110b0565b604051808273ffffffffffffffffffffffffffffffffffffffff1673ffffffffffffffffffffffffffffffffffffffff16815260200191505060405180910390f35b34801561031e57600080fd5b5061035d600480360381019080803573ffffffffffffffffffffffffffffffffffffffff169060200190929190803590602001909291905050506110ed565b005b34801561036b57600080fd5b50610374611232565b6040518082815260200191505060405180910390f35b34801561039657600080fd5b5061039f61123f565b60405180827bffffffffffffffffffffffffffffffffffffffffffffffffffffffff19167bffffffffffffffffffffffffffffffffffffffffffffffffffffffff1916815260200191505060405180910390f35b3480156103ff57600080fd5b5061045e600480360381019080803573ffffffffffffffffffffffffffffffffffffffff169060200190929190803573ffffffffffffffffffffffffffffffffffffffff16906020019092919080359060200190929190505050611266565b005b34801561046c57600080fd5b506104ab600480360381019080803573ffffffffffffffffffffffffffffffffffffffff16906020019092919080359060200190929190505050611371565b6040518082815260200191505060405180910390f35b3480156104cd57600080fd5b506104d66113e8565b6040518082815260200191505060405180910390f35b3480156104f857600080fd5b5061052d600480360381019080803573ffffffffffffffffffffffffffffffffffffffff1690602001909291905050506113f5565b6040518080602001828103825283818151815260200191508051906020019060200280838360005b83811015610570578082015181840152602081019050610555565b505050509050019250505060405180910390f35b34801561059057600080fd5b506105c5600480360381019080803573ffffffffffffffffffffffffffffffffffffffff16906020019092919050505061148c565b005b3480156105d357600080fd5b506105dc61152c565b005b3480156105ea57600080fd5b50610649600480360381019080803573ffffffffffffffffffffffffffffffffffffffff169060200190929190803573ffffffffffffffffffffffffffffffffffffffff169060200190929190803590602001909291905050506115ec565b005b34801561065757600080fd5b506106766004803603810190808035906020019092919050505061160d565b604051808215151515815260200191505060405180910390f35b34801561069c57600080fd5b506106bb6004803603810190808035906020019092919050505061167f565b6040518082815260200191505060405180910390f35b3480156106dd57600080fd5b506106e66116b7565b604051808215151515815260200191505060405180910390f35b34801561070c57600080fd5b5061072b600480360381019080803590602001909291905050506116ca565b604051808273ffffffffffffffffffffffffffffffffffffffff1673ffffffffffffffffffffffffffffffffffffffff16815260200191505060405180910390f35b61078b60048036038101908080359060200190929190505050611748565b005b34801561079957600080fd5b506107ce600480360381019080803573ffffffffffffffffffffffffffffffffffffffff169060200190929190505050611d6d565b6040518080602001828103825283818151815260200191508051906020019060200280838360005b838110156108115780820151818401526020810190506107f6565b505050509050019250505060405180910390f35b34801561083157600080fd5b5061085060048036038101908080359060200190929190505050611e04565b60405180806020018b81526020018a8152602001891515151581526020018815151515815260200187815260200186815260200180602001806020018573ffffffffffffffffffffffffffffffffffffffff1673ffffffffffffffffffffffffffffffffffffffff16815260200184810384528e818151815260200191508051906020019080838360005b838110156108f65780820151818401526020810190506108db565b50505050905090810190601f1680156109235780820380516001836020036101000a031916815260200191505b50848103835287818151815260200191508051906020019080838360005b8381101561095c578082015181840152602081019050610941565b50505050905090810190601f1680156109895780820380516001836020036101000a031916815260200191505b50848103825286818151815260200191508051906020019080838360005b838110156109c25780820151818401526020810190506109a7565b50505050905090810190601f1680156109ef5780820380516001836020036101000a031916815260200191505b509d505050505050505050505050505060405180910390f35b348015610a1457600080fd5b50610a49600480360381019080803573ffffffffffffffffffffffffffffffffffffffff169060200190929190505050612156565b6040518082815260200191505060405180910390f35b348015610a6b57600080fd5b50610a746121da565b005b348015610a8257600080fd5b50610aa1600480360381019080803590602001909291905050506122df565b604051808381526020018281526020019250505060405180910390f35b348015610aca57600080fd5b50610ad361234f565b005b348015610ae157600080fd5b50610aea6123e6565b005b348015610af857600080fd5b50610b016124a7565b604051808273ffffffffffffffffffffffffffffffffffffffff1673ffffffffffffffffffffffffffffffffffffffff16815260200191505060405180910390f35b348015610b4f57600080fd5b50610b586124cd565b6040518080602001828103825283818151815260200191508051906020019080838360005b83811015610b98578082015181840152602081019050610b7d565b50505050905090810190601f168015610bc55780820380516001836020036101000a031916815260200191505b509250505060405180910390f35b348015610bdf57600080fd5b50610c20600480360381019080803573ffffffffffffffffffffffffffffffffffffffff16906020019092919080351515906020019092919050505061256f565b005b348015610c2e57600080fd5b50610cd3600480360381019080803573ffffffffffffffffffffffffffffffffffffffff169060200190929190803573ffffffffffffffffffffffffffffffffffffffff16906020019092919080359060200190929190803590602001908201803590602001908080601f01602080910402602001604051908101604052809392919081815260200183838082843782019150505050505091929192905050506126ab565b005b348015610ce157600080fd5b50610d00600480360381019080803590602001909291905050506126d3565b6040518080602001828103825283818151815260200191508051906020019080838360005b83811015610d40578082015181840152602081019050610d25565b50505050905090810190601f168015610d6d5780820380516001836020036101000a031916815260200191505b509250505060405180910390f35b348015610d8757600080fd5b50610ddc600480360381019080803573ffffffffffffffffffffffffffffffffffffffff169060200190929190803573ffffffffffffffffffffffffffffffffffffffff16906020019092919050505061279c565b604051808215151515815260200191505060405180910390f35b348015610e0257600080fd5b50610e37600480360381019080803573ffffffffffffffffffffffffffffffffffffffff169060200190929190505050612830565b005b348015610e4557600080fd5b50610e7a600480360381019080803573ffffffffffffffffffffffffffffffffffffffff169060200190929190505050612898565b005b348015610e8857600080fd5b50610fa5600480360381019080803590602001908201803590602001908080601f0160208091040260200160405190810160405280939291908181526020018383808284378201915050505050509192919290803590602001909291908035906020019092919080351515906020019092919080351515906020019092919080359060200190929190803590602001908201803590602001908080601f0160208091040260200160405190810160405280939291908181526020018383808284378201915050505050509192919290803590602001908201803590602001908080601f016020809104026020016040519081016040528093929190818152602001838380828437820191505050505050919291929050505061290d565b005b6000806000837bffffffffffffffffffffffffffffffffffffffffffffffffffffffff19167bffffffffffffffffffffffffffffffffffffffffffffffffffffffff1916815260200190815260200160002060009054906101000a900460ff169050919050565b606060058054600181600116156101000203166002900480601f0160208091040260200160405190810160405280929190818152602001828054600181600116156101000203166002900480156110a65780601f1061107b576101008083540402835291602001916110a6565b820191906000526020600020905b81548152906001019060200180831161108957829003601f168201915b5050505050905090565b60006002600083815260200190815260200160002060009054906101000a900473ffffffffffffffffffffffffffffffffffffffff169050919050565b60006110f8826116ca565b90508073ffffffffffffffffffffffffffffffffffffffff168373ffffffffffffffffffffffffffffffffffffffff161415151561113557600080fd5b8073ffffffffffffffffffffffffffffffffffffffff163373ffffffffffffffffffffffffffffffffffffffff1614806111755750611174813361279c565b5b151561118057600080fd5b826002600084815260200190815260200160002060006101000a81548173ffffffffffffffffffffffffffffffffffffffff021916908373ffffffffffffffffffffffffffffffffffffffff160217905550818373ffffffffffffffffffffffffffffffffffffffff168273ffffffffffffffffffffffffffffffffffffffff167f8c5be1e5ebec7d5bd14f71427d1e84f3dd0314c0f7b2291e5b200ac8c7c3b92560405160405180910390a4505050565b6000600980549050905090565b6301ffc9a77c01000000000000000000000000000000000000000000000000000000000281565b6112703382612d37565b151561127b57600080fd5b600073ffffffffffffffffffffffffffffffffffffffff168373ffffffffffffffffffffffffffffffffffffffff16141515156112b757600080fd5b600073ffffffffffffffffffffffffffffffffffffffff168273ffffffffffffffffffffffffffffffffffffffff16141515156112f357600080fd5b6112fd8382612dcc565b6113078382612ecf565b611311828261308b565b808273ffffffffffffffffffffffffffffffffffffffff168473ffffffffffffffffffffffffffffffffffffffff167fddf252ad1be2c89b69c2b068fc378daa952ba7f163c4a11628f55a4df523b3ef60405160405180910390a4505050565b600061137c83612156565b8210151561138957600080fd5b600760008473ffffffffffffffffffffffffffffffffffffffff1673ffffffffffffffffffffffffffffffffffffffff168152602001908152602001600020828154811015156113d557fe5b9060005260206000200154905092915050565b6000600f80549050905090565b6060600760008373ffffffffffffffffffffffffffffffffffffffff1673ffffffffffffffffffffffffffffffffffffffff16815260200190815260200160002080548060200260200160405190810160405280929190818152602001828054801561148057602002820191906000526020600020905b81548152602001906001019080831161146c575b50505050509050919050565b600d60009054906101000a900473ffffffffffffffffffffffffffffffffffffffff1673ffffffffffffffffffffffffffffffffffffffff163373ffffffffffffffffffffffffffffffffffffffff161415156114e857600080fd5b80600e60006101000a81548173ffffffffffffffffffffffffffffffffffffffff021916908373ffffffffffffffffffffffffffffffffffffffff16021790555050565b600d60009054906101000a900473ffffffffffffffffffffffffffffffffffffffff1673ffffffffffffffffffffffffffffffffffffffff163373ffffffffffffffffffffffffffffffffffffffff1614151561158857600080fd5b600d60149054906101000a900460ff1615156115a357600080fd5b6000600d60146101000a81548160ff0219169083151502179055507f7805862f689e2f13df9f062ff482ad3ad112aca9e0847911ed832e158c525b3360405160405180910390a1565b61160883838360206040519081016040528060008152506126ab565b505050565b6000806001600084815260200190815260200160002060009054906101000a900473ffffffffffffffffffffffffffffffffffffffff169050600073ffffffffffffffffffffffffffffffffffffffff168173ffffffffffffffffffffffffffffffffffffffff161415915050919050565b6000611689611232565b8210151561169657600080fd5b6009828154811015156116a557fe5b90600052602060002001549050919050565b600d60149054906101000a900460ff1681565b6000806001600084815260200190815260200160002060009054906101000a900473ffffffffffffffffffffffffffffffffffffffff169050600073ffffffffffffffffffffffffffffffffffffffff168173ffffffffffffffffffffffffffffffffffffffff161415151561173f57600080fd5b80915050919050565b61175061384e565b600061175a6138bc565b600084600f805490508110151561177057600080fd5b600f8681548110151561177f57fe5b906000526020600020906009020160020154428111151561179f57600080fd5b600d60149054906101000a900460ff161515156117bb57600080fd5b600f878154811015156117ca57fe5b906000526020600020906009020161014060405190810160405290816000820160009054906101000a900473ffffffffffffffffffffffffffffffffffffffff1673ffffffffffffffffffffffffffffffffffffffff1673ffffffffffffffffffffffffffffffffffffffff168152602001600182018054600181600116156101000203166002900480601f0160208091040260200160405190810160405280929190818152602001828054600181600116156101000203166002900480156118d45780601f106118a9576101008083540402835291602001916118d4565b820191906000526020600020905b8154815290600101906020018083116118b757829003601f168201915b5050505050815260200160028201548152602001600382015481526020016004820160009054906101000a900460ff161515151581526020016004820160019054906101000a900460ff161515151581526020016005820154815260200160068201548152602001600782018054600181600116156101000203166002900480601f0160208091040260200160405190810160405280929190818152602001828054600181600116156101000203166002900480156119d45780601f106119a9576101008083540402835291602001916119d4565b820191906000526020600020905b8154815290600101906020018083116119b757829003601f168201915b50505050508152602001600882018054600181600116156101000203166002900480601f016020809104026020016040519081016040528092919081815260200182805460018160011615610100020316600290048015611a765780601f10611a4b57610100808354040283529160200191611a76565b820191906000526020600020905b815481529060010190602001808311611a5957829003601f168201915b50505050508152505095508560a0015115611aa2578560e001518660c00151111515611aa157600080fd5b5b85608001511515611b145785606001513410151515611ac057600080fd5b856000015173ffffffffffffffffffffffffffffffffffffffff166108fc87606001519081150290604051600060405180830381858888f19350505050158015611b0e573d6000803e3d6000fd5b50611c5c565b600e60009054906101000a900473ffffffffffffffffffffffffffffffffffffffff1673ffffffffffffffffffffffffffffffffffffffff166323b872dd33886000015189606001516040518463ffffffff167c0100000000000000000000000000000000000000000000000000000000028152600401808473ffffffffffffffffffffffffffffffffffffffff1673ffffffffffffffffffffffffffffffffffffffff1681526020018373ffffffffffffffffffffffffffffffffffffffff1673ffffffffffffffffffffffffffffffffffffffff1681526020018281526020019350505050602060405180830381600087803b158015611c1557600080fd5b505af1158015611c29573d6000803e3d6000fd5b505050506040513d6020811015611c3f57600080fd5b81019080805190602001909291905050501515611c5b57600080fd5b5b611c7460018760e0015161316290919063ffffffff16565b945084600f88815481101515611c8657fe5b9060005260206000209060090201600601819055506040805190810160405280888152602001868152509350611d096001600c86908060018154018082558091505090600182039060005260206000209060020201600090919290919091506000820151816000015560208201518160010155505061317e90919063ffffffff16565b9250611d153384613197565b863373ffffffffffffffffffffffffffffffffffffffff167f97688cba7bf855e0de150e78d076aad5556007b5c34a8e89612b5f2085d0efbf856040518082815260200191505060405180910390a350505050505050565b6060601060008373ffffffffffffffffffffffffffffffffffffffff1673ffffffffffffffffffffffffffffffffffffffff168152602001908152602001600020805480602002602001604051908101604052809291908181526020018280548015611df857602002820191906000526020600020905b815481526020019060010190808311611de4575b50505050509050919050565b60606000806000806000806060806000611e1c61384e565b8b600f8054905081101515611e3057600080fd5b600f8d815481101515611e3f57fe5b906000526020600020906009020161014060405190810160405290816000820160009054906101000a900473ffffffffffffffffffffffffffffffffffffffff1673ffffffffffffffffffffffffffffffffffffffff1673ffffffffffffffffffffffffffffffffffffffff168152602001600182018054600181600116156101000203166002900480601f016020809104026020016040519081016040528092919081815260200182805460018160011615610100020316600290048015611f495780601f10611f1e57610100808354040283529160200191611f49565b820191906000526020600020905b815481529060010190602001808311611f2c57829003601f168201915b5050505050815260200160028201548152602001600382015481526020016004820160009054906101000a900460ff161515151581526020016004820160019054906101000a900460ff161515151581526020016005820154815260200160068201548152602001600782018054600181600116156101000203166002900480601f0160208091040260200160405190810160405280929190818152602001828054600181600116156101000203166002900480156120495780601f1061201e57610100808354040283529160200191612049565b820191906000526020600020905b81548152906001019060200180831161202c57829003601f168201915b50505050508152602001600882018054600181600116156101000203166002900480601f0160208091040260200160405190810160405280929190818152602001828054600181600116156101000203166002900480156120eb5780601f106120c0576101008083540402835291602001916120eb565b820191906000526020600020905b8154815290600101906020018083116120ce57829003601f168201915b505050505081525050915081602001518260400151836060015184608001518560a001518660c001518760e001518861010001518961012001518a600001518999508292508191509b509b509b509b509b509b509b509b509b509b5050509193959799509193959799565b60008073ffffffffffffffffffffffffffffffffffffffff168273ffffffffffffffffffffffffffffffffffffffff161415151561219357600080fd5b600360008373ffffffffffffffffffffffffffffffffffffffff1673ffffffffffffffffffffffffffffffffffffffff168152602001908152602001600020549050919050565b600d60009054906101000a900473ffffffffffffffffffffffffffffffffffffffff1673ffffffffffffffffffffffffffffffffffffffff163373ffffffffffffffffffffffffffffffffffffffff1614151561223657600080fd5b600d60009054906101000a900473ffffffffffffffffffffffffffffffffffffffff1673ffffffffffffffffffffffffffffffffffffffff167ff8df31144d9c2f0f6b59d69b8b98abd5459d07f2742c4df920b25aae33c6482060405160405180910390a26000600d60006101000a81548173ffffffffffffffffffffffffffffffffffffffff021916908373ffffffffffffffffffffffffffffffffffffffff160217905550565b6000806122ea6138bc565b600c80549050841015156122fd57600080fd5b600c8481548110151561230c57fe5b9060005260206000209060020201604080519081016040529081600082015481526020016001820154815250509050806000015181602001519250925050915091565b600d60009054906101000a900473ffffffffffffffffffffffffffffffffffffffff1673ffffffffffffffffffffffffffffffffffffffff163373ffffffffffffffffffffffffffffffffffffffff161415156123ab57600080fd5b600d60009054906101000a900473ffffffffffffffffffffffffffffffffffffffff1673ffffffffffffffffffffffffffffffffffffffff16ff5b600d60009054906101000a900473ffffffffffffffffffffffffffffffffffffffff1673ffffffffffffffffffffffffffffffffffffffff163373ffffffffffffffffffffffffffffffffffffffff1614151561244257600080fd5b600d60149054906101000a900460ff1615151561245e57600080fd5b6001600d60146101000a81548160ff0219169083151502179055507f6985a02210a168e66602d3235cb6db0e70f92b3ba4d376a33c0f3d9434bff62560405160405180910390a1565b600d60009054906101000a900473ffffffffffffffffffffffffffffffffffffffff1681565b606060068054600181600116156101000203166002900480601f0160208091040260200160405190810160405280929190818152602001828054600181600116156101000203166002900480156125655780601f1061253a57610100808354040283529160200191612565565b820191906000526020600020905b81548152906001019060200180831161254857829003601f168201915b5050505050905090565b3373ffffffffffffffffffffffffffffffffffffffff168273ffffffffffffffffffffffffffffffffffffffff16141515156125aa57600080fd5b80600460003373ffffffffffffffffffffffffffffffffffffffff1673ffffffffffffffffffffffffffffffffffffffff16815260200190815260200160002060008473ffffffffffffffffffffffffffffffffffffffff1673ffffffffffffffffffffffffffffffffffffffff16815260200190815260200160002060006101000a81548160ff0219169083151502179055508173ffffffffffffffffffffffffffffffffffffffff163373ffffffffffffffffffffffffffffffffffffffff167f17307eab39ab6107e8899845ad3d59bd9653f200f220920489ca2b5937696c3183604051808215151515815260200191505060405180910390a35050565b6126b6848484611266565b6126c2848484846131ee565b15156126cd57600080fd5b50505050565b60606126de8261160d565b15156126e957600080fd5b600b60008381526020019081526020016000208054600181600116156101000203166002900480601f0160208091040260200160405190810160405280929190818152602001828054600181600116156101000203166002900480156127905780601f1061276557610100808354040283529160200191612790565b820191906000526020600020905b81548152906001019060200180831161277357829003601f168201915b50505050509050919050565b6000600460008473ffffffffffffffffffffffffffffffffffffffff1673ffffffffffffffffffffffffffffffffffffffff16815260200190815260200160002060008373ffffffffffffffffffffffffffffffffffffffff1673ffffffffffffffffffffffffffffffffffffffff16815260200190815260200160002060009054906101000a900460ff16905092915050565b600d60009054906101000a900473ffffffffffffffffffffffffffffffffffffffff1673ffffffffffffffffffffffffffffffffffffffff163373ffffffffffffffffffffffffffffffffffffffff1614151561288c57600080fd5b61289581613410565b50565b600d60009054906101000a900473ffffffffffffffffffffffffffffffffffffffff1673ffffffffffffffffffffffffffffffffffffffff163373ffffffffffffffffffffffffffffffffffffffff161415156128f457600080fd5b8073ffffffffffffffffffffffffffffffffffffffff16ff5b61291561384e565b600088428111151561292657600080fd5b600d60149054906101000a900460ff1615151561294257600080fd5b610140604051908101604052803373ffffffffffffffffffffffffffffffffffffffff1681526020018c81526020018b81526020018a81526020018915158152602001881515815260200187815260200160008152602001868152602001858152509250612af16001600f859080600181540180825580915050906001820390600052602060002090600902016000909192909190915060008201518160000160006101000a81548173ffffffffffffffffffffffffffffffffffffffff021916908373ffffffffffffffffffffffffffffffffffffffff1602179055506020820151816001019080519060200190612a3c9291906138d6565b50604082015181600201556060820151816003015560808201518160040160006101000a81548160ff02191690831515021790555060a08201518160040160016101000a81548160ff02191690831515021790555060c0820151816005015560e08201518160060155610100820151816007019080519060200190612ac29291906138d6565b50610120820151816008019080519060200190612ae09291906138d6565b50505061317e90919063ffffffff16565b9150601060003373ffffffffffffffffffffffffffffffffffffffff1673ffffffffffffffffffffffffffffffffffffffff1681526020019081526020016000208290806001815401808255809150509060018203906000526020600020016000909192909190915055503373ffffffffffffffffffffffffffffffffffffffff167fd594a16275f1fbc3ac58ea8d968ac34f2e84e2e788c92ad0e0158a9d5432abfa838d8d8d8d8d8d60008e8e604051808b8152602001806020018a81526020018981526020018815151515815260200187151515158152602001868152602001858152602001806020018060200184810384528d818151815260200191508051906020019080838360005b83811015612c19578082015181840152602081019050612bfe565b50505050905090810190601f168015612c465780820380516001836020036101000a031916815260200191505b50848103835286818151815260200191508051906020019080838360005b83811015612c7f578082015181840152602081019050612c64565b50505050905090810190601f168015612cac5780820380516001836020036101000a031916815260200191505b50848103825285818151815260200191508051906020019080838360005b83811015612ce5578082015181840152602081019050612cca565b50505050905090810190601f168015612d125780820380516001836020036101000a031916815260200191505b509d505050505050505050505050505060405180910390a25050505050505050505050565b600080612d43836116ca565b90508073ffffffffffffffffffffffffffffffffffffffff168473ffffffffffffffffffffffffffffffffffffffff161480612db257508373ffffffffffffffffffffffffffffffffffffffff16612d9a846110b0565b73ffffffffffffffffffffffffffffffffffffffff16145b80612dc35750612dc2818561279c565b5b91505092915050565b8173ffffffffffffffffffffffffffffffffffffffff16612dec826116ca565b73ffffffffffffffffffffffffffffffffffffffff16141515612e0e57600080fd5b600073ffffffffffffffffffffffffffffffffffffffff166002600083815260200190815260200160002060009054906101000a900473ffffffffffffffffffffffffffffffffffffffff1673ffffffffffffffffffffffffffffffffffffffff16141515612ecb5760006002600083815260200190815260200160002060006101000a81548173ffffffffffffffffffffffffffffffffffffffff021916908373ffffffffffffffffffffffffffffffffffffffff1602179055505b5050565b6000806000612ede858561350c565b60086000858152602001908152602001600020549250612f4a6001600760008873ffffffffffffffffffffffffffffffffffffffff1673ffffffffffffffffffffffffffffffffffffffff1681526020019081526020016000208054905061317e90919063ffffffff16565b9150600760008673ffffffffffffffffffffffffffffffffffffffff1673ffffffffffffffffffffffffffffffffffffffff16815260200190815260200160002082815481101515612f9857fe5b9060005260206000200154905080600760008773ffffffffffffffffffffffffffffffffffffffff1673ffffffffffffffffffffffffffffffffffffffff16815260200190815260200160002084815481101515612ff257fe5b9060005260206000200181905550600760008673ffffffffffffffffffffffffffffffffffffffff1673ffffffffffffffffffffffffffffffffffffffff1681526020019081526020016000208054809190600190036130529190613956565b50600060086000868152602001908152602001600020819055508260086000838152602001908152602001600020819055505050505050565b6000613097838361363b565b600760008473ffffffffffffffffffffffffffffffffffffffff1673ffffffffffffffffffffffffffffffffffffffff168152602001908152602001600020805490509050600760008473ffffffffffffffffffffffffffffffffffffffff1673ffffffffffffffffffffffffffffffffffffffff168152602001908152602001600020829080600181540180825580915050906001820390600052602060002001600090919290919091505550806008600084815260200190815260200160002081905550505050565b6000818301905082811015151561317557fe5b80905092915050565b600082821115151561318c57fe5b818303905092915050565b6131a18282613795565b600980549050600a60008381526020019081526020016000208190555060098190806001815401808255809150509060018203906000526020600020016000909192909190915055505050565b6000806132108573ffffffffffffffffffffffffffffffffffffffff1661383b565b151561321f5760019150613407565b8473ffffffffffffffffffffffffffffffffffffffff1663150b7a02338887876040518563ffffffff167c0100000000000000000000000000000000000000000000000000000000028152600401808573ffffffffffffffffffffffffffffffffffffffff1673ffffffffffffffffffffffffffffffffffffffff1681526020018473ffffffffffffffffffffffffffffffffffffffff1673ffffffffffffffffffffffffffffffffffffffff16815260200183815260200180602001828103825283818151815260200191508051906020019080838360005b838110156133145780820151818401526020810190506132f9565b50505050905090810190601f1680156133415780820380516001836020036101000a031916815260200191505b5095505050505050602060405180830381600087803b15801561336357600080fd5b505af1158015613377573d6000803e3d6000fd5b505050506040513d602081101561338d57600080fd5b8101908080519060200190929190505050905063150b7a027c0100000000000000000000000000000000000000000000000000000000027bffffffffffffffffffffffffffffffffffffffffffffffffffffffff1916817bffffffffffffffffffffffffffffffffffffffffffffffffffffffff19161491505b50949350505050565b600073ffffffffffffffffffffffffffffffffffffffff168173ffffffffffffffffffffffffffffffffffffffff161415151561344c57600080fd5b8073ffffffffffffffffffffffffffffffffffffffff16600d60009054906101000a900473ffffffffffffffffffffffffffffffffffffffff1673ffffffffffffffffffffffffffffffffffffffff167f8be0079c531659141344cd1fd0a4f28419497f9722a3daafe3b4186f6b6457e060405160405180910390a380600d60006101000a81548173ffffffffffffffffffffffffffffffffffffffff021916908373ffffffffffffffffffffffffffffffffffffffff16021790555050565b8173ffffffffffffffffffffffffffffffffffffffff1661352c826116ca565b73ffffffffffffffffffffffffffffffffffffffff1614151561354e57600080fd5b6135a16001600360008573ffffffffffffffffffffffffffffffffffffffff1673ffffffffffffffffffffffffffffffffffffffff1681526020019081526020016000205461317e90919063ffffffff16565b600360008473ffffffffffffffffffffffffffffffffffffffff1673ffffffffffffffffffffffffffffffffffffffff1681526020019081526020016000208190555060006001600083815260200190815260200160002060006101000a81548173ffffffffffffffffffffffffffffffffffffffff021916908373ffffffffffffffffffffffffffffffffffffffff1602179055505050565b600073ffffffffffffffffffffffffffffffffffffffff166001600083815260200190815260200160002060009054906101000a900473ffffffffffffffffffffffffffffffffffffffff1673ffffffffffffffffffffffffffffffffffffffff161415156136a957600080fd5b816001600083815260200190815260200160002060006101000a81548173ffffffffffffffffffffffffffffffffffffffff021916908373ffffffffffffffffffffffffffffffffffffffff16021790555061374e6001600360008573ffffffffffffffffffffffffffffffffffffffff1673ffffffffffffffffffffffffffffffffffffffff1681526020019081526020016000205461316290919063ffffffff16565b600360008473ffffffffffffffffffffffffffffffffffffffff1673ffffffffffffffffffffffffffffffffffffffff168152602001908152602001600020819055505050565b600073ffffffffffffffffffffffffffffffffffffffff168273ffffffffffffffffffffffffffffffffffffffff16141515156137d157600080fd5b6137db828261308b565b808273ffffffffffffffffffffffffffffffffffffffff16600073ffffffffffffffffffffffffffffffffffffffff167fddf252ad1be2c89b69c2b068fc378daa952ba7f163c4a11628f55a4df523b3ef60405160405180910390a45050565b600080823b905060008111915050919050565b61014060405190810160405280600073ffffffffffffffffffffffffffffffffffffffff168152602001606081526020016000815260200160008152602001600015158152602001600015158152602001600081526020016000815260200160608152602001606081525090565b604080519081016040528060008152602001600081525090565b828054600181600116156101000203166002900490600052602060002090601f016020900481019282601f1061391757805160ff1916838001178555613945565b82800160010185558215613945579182015b82811115613944578251825591602001919060010190613929565b5b5090506139529190613982565b5090565b81548183558181111561397d5781836000526020600020918201910161397c9190613982565b5b505050565b6139a491905b808211156139a0576000816000905550600101613988565b5090565b905600a165627a7a723058207458b3b2c4560e3a79618fff13a82c97b10595d3ca90ffae7d2fb535aef5d8bc0029",
  "source": "pragma solidity ^0.4.24;\n\nimport './OpenTicket.sol';\nimport 'openzeppelin-solidity/contracts/token/ERC20/ERC20.sol';\nimport 'openzeppelin-solidity/contracts/lifecycle/Pausable.sol';\nimport 'openzeppelin-solidity/contracts/lifecycle/Destructible.sol';\nimport 'openzeppelin-solidity/contracts/math/SafeMath.sol';\n\n/**\n* @title OpenEvents\n* @dev It is a main contract that provides ability to create events, view information about events and buy tickets.\n*/\ncontract OpenEvents is OpenTicket, Pausable, Destructible {\n\tusing SafeMath for uint;\n\n\taddress tokenAddress;\n\n\tstruct OpenEvent {\n\t\taddress owner;\n\t\tstring name;\n\t\tuint time;\n\t\tuint price;\n\t\tbool token;\n\t\tbool limited;\n\t\tuint seats;\n\t\tuint sold;\n\t\tstring ipfs;\n\t\tstring category;\n\t}\n\n\tOpenEvent[] private openEvents;\n\n\t// Mapping from owner to list of owned events IDs.\n\tmapping(address => uint256[]) private ownedEvents;\n\n\tevent CreatedEvent(address indexed owner, uint eventId, string name ,uint time, uint price, bool token, bool limited, uint seats, uint sold, string ipfs, string category);\n\tevent SoldTicket(address indexed buyer, uint indexed eventId, uint ticketId);\n\n\t/**\n\t* @dev Constructor sets the USD Token address that will be used for buying tickets.\n\t* @param _token address - The address of the token contract.\n\t*/\n\tconstructor(address _token) public {\n\t\ttokenAddress = _token;\n\t}\n\n\t/**\n\t* @dev Throws if events time is in the past.\n\t* @param _time uint - Time of event.\n\t*/\n    modifier goodTime(uint _time) {\n        require(_time > now);\n        _;\n    }\n\n\t/**\n\t* @dev Throws if event does not exist.\n\t* @param _id uint - Event ID.\n\t*/\n    modifier eventExist(uint _id) {\n        require(_id < openEvents.length);\n        _;\n    }\n\n\t/**\n\t* @dev Function changes the USD Token address.\n\t* @param _token address - The address of the token contract.\n\t* @notice Requires that the msg.sender is contract owner.\n\t*/\n\tfunction chengeToken(address _token) public onlyOwner() {\n\t\ttokenAddress = _token;\n\t}\n\n\t/**\n\t* @dev Function creates the event.\n\t* @param _name string - The name of the event.\n\t* @param _time uint - The time of the event. Should be in the future.\n\t* @param _price uint - The ticket price.\n\t* @param _token bool - If true the price will be in tokens, else the price will be in ethereum.\n\t* @param _limited bool - If true event has limited seats.\n\t* @param _seats uint - If event has limited seats, says how much tickets can be sold.\n\t* @param _ipfs string - The IPFS hash containing additional information about the event.\n\t* @param _category string - The category of the event.\n\t* @notice Requires that the events time is in the future.\n\t* @notice Requires that the contract is not paused.\n\t*/\n\tfunction createEvent(\n\t\tstring _name,\n\t\tuint _time,\n\t\tuint _price,\n\t\tbool _token,\n\t\tbool _limited,\n\t\tuint _seats,\n\t\tstring _ipfs,\n\t\tstring _category\n\t)\n\t\tgoodTime(_time)\n\t\twhenNotPaused()\n\t\tpublic\n\t{\n\t\tOpenEvent memory _event = OpenEvent({\n\t\t\towner: msg.sender,\n\t\t\tname: _name,\n\t\t\ttime: _time,\n\t\t\tprice: _price,\n\t\t\ttoken: _token,\n\t\t\tlimited: _limited,\n\t\t\tseats: _seats,\n\t\t\tsold: 0,\n\t\t\tipfs: _ipfs,\n\t\t\tcategory: _category\n\t\t});\n\t\tuint _eventId = openEvents.push(_event).sub(1);\n\t\townedEvents[msg.sender].push(_eventId);\n\t\temit CreatedEvent(msg.sender, _eventId,_name,_time,_price,_token,_limited,_seats,0,_ipfs,_category);\n\t}\n\n\t/**\n\t* @dev Function to show all events of the specified address.\n\t* @param _owner address - The address to query the events of.\n\t* @return uint[] - Array of events IDs.\n\t*/\n\tfunction eventsOf(address _owner) public view returns(uint[]) {\n\t\treturn ownedEvents[_owner];\n\t}\n\n\t/**\n\t* @dev Function to show information about the event.\n\t* @param _id uint - Event ID.\n\t* @return name string - The name of the event.\n\t* @return time uint - The time of the event.\n\t* @return price uint - The price of the event.\n\t* @return token bool - If true the price is in tokens, else the price is in ethereum.\n\t* @return limited bool - If true event has limited seats.\n\t* @return seats uint - If event has limited seats, show how much tickets can be sold.\n\t* @return sold uint - Number of sold tickets.\n\t* @return ipfs string - The IPFS hash containing additional information about event.\n\t* @return category string - The category of the event.\n\t* @return owner address - The owner of the event.\n\t* @notice Requires that the events exist.\n\t*/\n\tfunction getEvent(uint _id)\n\t\tpublic\n\t\tview\n\t\teventExist(_id)\n\treturns(\n\t\tstring name,\n\t\tuint time,\n\t\tuint price,\n\t\tbool token,\n\t\tbool limited,\n\t\tuint seats,\n\t\tuint sold,\n\t\tstring ipfs,\n\t\tstring category,\n\t\taddress owner\n\t) {\n\t\tOpenEvent memory _event = openEvents[_id];\n\t\treturn(\n\t\t\t_event.name,\n\t\t\t_event.time,\n\t\t\t_event.price,\n\t\t\t_event.token,\n\t\t\t_event.limited,\n\t\t\t_event.seats,\n\t\t\t_event.sold,\n\t\t\t_event.ipfs,\n\t\t\t_event.category,\n\t\t\t_event.owner\n\t\t);\n\t}\n\n\t/**\n\t* @dev Function returns number of all events.\n\t* @return uint - Number of events.\n\t*/\n\tfunction getEventsCount() public view returns(uint) {\n\t\treturn openEvents.length;\n\t}\n\n\t/**\n\t* @dev Function to buy ticket to specific event.\n\t* @param _eventId uint - The ID of event.\n\t* @notice Requires that the events exist.\n\t* @notice Requires that the events time is in the future.\n\t* @notice Requires that the contract is not paused.\n\t* @notice Reverts if event has limited seats and an amount of sold tickets bigger then the number of seats.\n\t* @notice Reverts if ticket price is in ethereum and msg.value smaller then the ticket price.\n\t* @notice Reverts if ticket price is in tokens and token.transferFrom() does not return true.\n\t*/\n\tfunction buyTicket(uint _eventId)\n\t\tpublic\n\t\tpayable\n\t\teventExist(_eventId)\n\t\tgoodTime(openEvents[_eventId].time)\n\t\twhenNotPaused()\n\t{\n\t\tOpenEvent memory _event = openEvents[_eventId];\n\n\t\tif (_event.limited) require(_event.seats > _event.sold);\n\n\t\tif (!_event.token) {\n\t\t\trequire(msg.value >= _event.price);\n\t\t\t_event.owner.transfer(_event.price);\n\t\t} else {\n\t\t\tif (!ERC20(tokenAddress).transferFrom(msg.sender, _event.owner, _event.price)) {\n\t\t\t\trevert();\n\t\t\t}\n\t\t}\n\n\t\tuint seat = _event.sold.add(1);\n\t\topenEvents[_eventId].sold = seat;\n\n\t\tTicket memory _ticket = Ticket({\n\t\t\tevent_id: _eventId,\n\t\t\tseat: seat\n\t\t});\n\n\t\tuint _ticketId = tickets.push(_ticket).sub(1);\n        _mint(msg.sender, _ticketId);\n\t\temit SoldTicket(msg.sender, _eventId, _ticketId);\n\t}\n}\n",
  "sourcePath": "/Applications/MAMP/htdocs/events-dapp/contracts/OpenEvents.sol",
  "compiler": {
    "name": "solc",
    "version": "0.4.24+commit.e67f0147.Emscripten.clang"
  },
  "schemaVersion": "3.0.19",
  "updatedAt": "2020-01-27T05:57:10.851Z",
  "devdoc": {
    "methods": {
      "approve(address,uint256)": {
        "details": "Approves another address to transfer the given token ID The zero address indicates there is no approved address. There can only be one approved address per token at a given time. Can only be called by the token owner or an approved operator.",
        "params": {
          "_to": "address to be approved for the given token ID",
          "_tokenId": "uint256 ID of the token to be approved"
        }
      },
      "balanceOf(address)": {
        "details": "Gets the balance of the specified address",
        "params": {
          "_owner": "address to query the balance of"
        },
        "return": "uint256 representing the amount owned by the passed address"
      },
      "buyTicket(uint256)": {
        "details": "Function to buy ticket to specific event.",
        "params": {
          "_eventId": "uint - The ID of event."
        }
      },
      "chengeToken(address)": {
        "details": "Function changes the USD Token address.",
        "params": {
          "_token": "address - The address of the token contract."
        }
      },
      "createEvent(string,uint256,uint256,bool,bool,uint256,string,string)": {
        "details": "Function creates the event.",
        "params": {
          "_category": "string - The category of the event.",
          "_ipfs": "string - The IPFS hash containing additional information about the event.",
          "_limited": "bool - If true event has limited seats.",
          "_name": "string - The name of the event.",
          "_price": "uint - The ticket price.",
          "_seats": "uint - If event has limited seats, says how much tickets can be sold.",
          "_time": "uint - The time of the event. Should be in the future.",
          "_token": "bool - If true the price will be in tokens, else the price will be in ethereum."
        }
      },
      "destroy()": {
        "details": "Transfers the current balance to the owner and terminates the contract."
      },
      "eventsOf(address)": {
        "details": "Function to show all events of the specified address.",
        "params": {
          "_owner": "address - The address to query the events of."
        },
        "return": "uint[] - Array of events IDs."
      },
      "exists(uint256)": {
        "details": "Returns whether the specified token exists",
        "params": {
          "_tokenId": "uint256 ID of the token to query the existence of"
        },
        "return": "whether the token exists"
      },
      "getApproved(uint256)": {
        "details": "Gets the approved address for a token ID, or zero if no address set",
        "params": {
          "_tokenId": "uint256 ID of the token to query the approval of"
        },
        "return": "address currently approved for the given token ID"
      },
      "getEvent(uint256)": {
        "details": "Function to show information about the event.",
        "params": {
          "_id": "uint - Event ID."
        },
        "return": "name string - The name of the event.time uint - The time of the event.price uint - The price of the event.token bool - If true the price is in tokens, else the price is in ethereum.limited bool - If true event has limited seats.seats uint - If event has limited seats, show how much tickets can be sold.sold uint - Number of sold tickets.ipfs string - The IPFS hash containing additional information about event.category string - The category of the event.owner address - The owner of the event."
      },
      "getEventsCount()": {
        "details": "Function returns number of all events.",
        "return": "uint - Number of events."
      },
      "getTicket(uint256)": {
        "details": "Function to show ticket information.",
        "params": {
          "_id": "uint - Ticket ID."
        },
        "return": "uint - Event ID.uint - Ticket seat."
      },
      "isApprovedForAll(address,address)": {
        "details": "Tells whether an operator is approved by a given owner",
        "params": {
          "_operator": "operator address which you want to query the approval of",
          "_owner": "owner address which you want to query the approval of"
        },
        "return": "bool whether the given operator is approved by the given owner"
      },
      "name()": {
        "details": "Gets the token name",
        "return": "string representing the token name"
      },
      "ownerOf(uint256)": {
        "details": "Gets the owner of the specified token ID",
        "params": {
          "_tokenId": "uint256 ID of the token to query the owner of"
        },
        "return": "owner address currently marked as the owner of the given token ID"
      },
      "pause()": {
        "details": "called by the owner to pause, triggers stopped state"
      },
      "renounceOwnership()": {
        "details": "Allows the current owner to relinquish control of the contract."
      },
      "safeTransferFrom(address,address,uint256)": {
        "details": "Safely transfers the ownership of a given token ID to another address If the target address is a contract, it must implement `onERC721Received`, which is called upon a safe transfer, and return the magic value `bytes4(keccak256(\"onERC721Received(address,address,uint256,bytes)\"))`; otherwise, the transfer is reverted.   * Requires the msg sender to be the owner, approved, or operator",
        "params": {
          "_from": "current owner of the token",
          "_to": "address to receive the ownership of the given token ID",
          "_tokenId": "uint256 ID of the token to be transferred"
        }
      },
      "safeTransferFrom(address,address,uint256,bytes)": {
        "details": "Safely transfers the ownership of a given token ID to another address If the target address is a contract, it must implement `onERC721Received`, which is called upon a safe transfer, and return the magic value `bytes4(keccak256(\"onERC721Received(address,address,uint256,bytes)\"))`; otherwise, the transfer is reverted. Requires the msg sender to be the owner, approved, or operator",
        "params": {
          "_data": "bytes data to send along with a safe transfer check",
          "_from": "current owner of the token",
          "_to": "address to receive the ownership of the given token ID",
          "_tokenId": "uint256 ID of the token to be transferred"
        }
      },
      "setApprovalForAll(address,bool)": {
        "details": "Sets or unsets the approval of a given operator An operator is allowed to transfer all tokens of the sender on their behalf",
        "params": {
          "_approved": "representing the status of the approval to be set",
          "_to": "operator address to set the approval"
        }
      },
      "supportsInterface(bytes4)": {
        "details": "implement supportsInterface(bytes4) using a lookup table"
      },
      "symbol()": {
        "details": "Gets the token symbol",
        "return": "string representing the token symbol"
      },
      "ticketsOf(address)": {
        "details": "Function to show all tickets of the specified address.",
        "params": {
          "_owner": "address - The address to query the tickets of."
        },
        "return": "uint[] - Array of tickets ID."
      },
      "tokenByIndex(uint256)": {
        "details": "Gets the token ID at a given index of all the tokens in this contract Reverts if the index is greater or equal to the total number of tokens",
        "params": {
          "_index": "uint256 representing the index to be accessed of the tokens list"
        },
        "return": "uint256 token ID at the given index of the tokens list"
      },
      "tokenOfOwnerByIndex(address,uint256)": {
        "details": "Gets the token ID at a given index of the tokens list of the requested owner",
        "params": {
          "_index": "uint256 representing the index to be accessed of the requested tokens list",
          "_owner": "address owning the tokens list to be accessed"
        },
        "return": "uint256 token ID at the given index of the tokens list owned by the requested address"
      },
      "tokenURI(uint256)": {
        "details": "Returns an URI for a given token ID Throws if the token ID does not exist. May return an empty string.",
        "params": {
          "_tokenId": "uint256 ID of the token to query"
        }
      },
      "totalSupply()": {
        "details": "Gets the total amount of tokens stored by the contract",
        "return": "uint256 representing the total amount of tokens"
      },
      "transferFrom(address,address,uint256)": {
        "details": "Transfers the ownership of a given token ID to another address Usage of this method is discouraged, use `safeTransferFrom` whenever possible Requires the msg sender to be the owner, approved, or operator",
        "params": {
          "_from": "current owner of the token",
          "_to": "address to receive the ownership of the given token ID",
          "_tokenId": "uint256 ID of the token to be transferred"
        }
      },
      "transferOwnership(address)": {
        "details": "Allows the current owner to transfer control of the contract to a newOwner.",
        "params": {
          "_newOwner": "The address to transfer ownership to."
        }
      },
      "unpause()": {
        "details": "called by the owner to unpause, returns to normal state"
      }
    },
    "title": "OpenEvents"
  },
  "userdoc": {
    "methods": {
      "buyTicket(uint256)": {
        "notice": "Requires that the events exist.Requires that the events time is in the future.Requires that the contract is not paused.Reverts if event has limited seats and an amount of sold tickets bigger then the number of seats.Reverts if ticket price is in ethereum and msg.value smaller then the ticket price.Reverts if ticket price is in tokens and token.transferFrom() does not return true."
      },
      "chengeToken(address)": {
        "notice": "Requires that the msg.sender is contract owner."
      },
      "createEvent(string,uint256,uint256,bool,bool,uint256,string,string)": {
        "notice": "Requires that the events time is in the future.Requires that the contract is not paused."
      },
      "getEvent(uint256)": {
        "notice": "Requires that the events exist."
      },
      "renounceOwnership()": {
        "notice": "Renouncing to ownership will leave the contract without an owner. It will not be possible to call the functions with the `onlyOwner` modifier anymore."
      }
    }
  }
}